:107800000C94343C0C94513C0C94513C0C94513CE1
:107810000C94513C0C94513C0C94513C0C94513CB4
:107820000C94513C0C94513C0C94513C0C94513CA4
:107830000C94513C0C94513C0C94513C0C94513C94
:107840000C94513C0C94513C0C94513C0C94513C84
:107850000C94513C0C94513C0C94513C0C94513C74
:107860000C94513C0C94513C11241FBECFEFD8E036
:10787000DEBFCDBF11E0A0E0B1E0ECE1FFE702C068
:1078800005900D92A230B107D9F712E0A2E0B1E065
:1078900001C01D92AD30B107E1F70E94173D0C9475
:1078A0008C3F0C94003CE0ECF0E0908195FFFDCF24
:1078B0008093C6000895CF93982F859585958595DB
:1078C0008595805D9F709A301CF0C7E5C90F02C096
:1078D000C0E3C90F0E94533C8C2F0E94533CCF91B0
:1078E0000895CF92DF92EF92FF92CF93DF93C12C56
:1078F000D12C7601C0ECD0E012C08FEFC81AD80AA4
:10790000E80AF80A81E9C81680EDD80683E0E8069F
:10791000F10428F0E0910201F091030109958881BA
:1079200088235CF78091C600DF91CF91FF90EF90A4
:10793000DF90CF900895CF930E94713CC82F0E9492
:10794000533CC1361CF089EA8C0F06C0C0331CF0D2
:1079500080ED8C0F01C08C2FCF910895CF930E94A2
:107960009B3CC82F0E949B3C90E1C99F800D112435
:10797000CF910895CF93882329F0C82F0E94713C9E
:10798000C150E1F7CF910895CF93C82F0E94713C69
:10799000803251F484E10E94533C8C2F0E94533C6E
:1079A00080E10E94533C0CC0809104018F5F809362
:1079B0000401853029F4E0910201F0910301099559
:1079C000CF9108950E94713C803239F484E10E9485
:1079D000533C80E10E94533C0895809104018F5FE5
:1079E00080930401853029F4E0910201F0910301B4
:1079F000099508958823D1F0389A409A3A9A429886
:107A00002D9A2FE738E391E0215030409040E1F784
:107A100000C000002D982FE738E391E0215030405E
:107A20009040E1F700C00000815031F70895229A9C
:107A30002A9A389A409A3A9A4298E1E6F0E080E829
:107A4000808381E08083000082E08093C0008DE02D
:107A50008093C4001092C50088E18093C10086E045
:107A60008093C2005098589A259A81E00E94FA3C6F
:107A70000F2EF8E0EF2EF2E0FF2EF02D612C712C8E
:107A80000F2EF6E0CF2EF1E0DF2EF02D552453948B
:107A90000F2EF8E0AF2EF1E0BF2EF02D0E94713CCA
:107AA000982F803319F40E94E23CF8CF813369F5B6
:107AB0000E94713C8032E1F484E10E94533C81E4F5
:107AC0000E94533C86E50E94533C82E50E94533C51
:107AD00080E20E94533C89E40E94533C83E50E946B
:107AE000533C80E50E94533C80E10E94533CD6CF3A
:107AF000809104018F5F80930401853079F6E091D5
:107B00000201F09103010995C9CF803449F40E9424
:107B1000713C863810F00E94713C0E94E23CBECF5E
:107B20008134F1F40E94713C803821F482E00E949B
:107B3000C43CB4CF813821F4852D0E94C43CAECF23
:107B4000823821F480E10E94C43CA8CF883921F416
:107B500083E00E94C43CA2CF80E00E94C43C9ECF40
:107B6000823431F484E10E94BA3C0E94E23C96CF18
:107B7000853431F485E00E94BA3C0E94E23C8ECF0D
:107B80008D7F803519F40E94E23C88CF913519F43D
:107B90000E94E23C83CF953559F40E94713CF60176
:107BA00080830E94713CF60181830E94E23C76CF83
:107BB000963511F50E94713C8033B9F40E94713CF6
:107BC0000E94713C182F0E94713C111104C08EE17B
:107BD0000E94C43C63CF113021F485E90E94C43C6B
:107BE0005DCF8FE00E94C43C59CF83E00E94BA3C35
:107BF00080E00E94C43C52CF943609F0E8C00E9455
:107C0000713CF70181830E94713CF7018083809170
:107C10000C028E7F80930C020E94713C853429F403
:107C200080910C02816080930C02809108029091F7
:107C30000902892B89F04501062D172D0E94713C00
:107C4000F40181934F010F5F1F4F809108029091C3
:107C500009020817190790F30E94713C803209F05D
:107C6000A8C080910C0280FF33C0809106019091E2
:107C70000701880F991F9093070180930601809157
:107C8000080290910902892B09F48CC0F501262D78
:107C9000372DF999FECF809106019091070192BD91
:107CA00081BD819180BDFA9AF99A809106019091E7
:107CB0000701019690930701809306012F5F3F4FC4
:107CC00080910802909109022817390710F36AC0C1
:107CD000F6018181880F880B852180930B028091AA
:107CE000060190910701880F991F909307018093D7
:107CF0000601F701808180FF09C080910802909100
:107D0000090201969093090280930802F894F99968
:107D1000FECF1127E0910601F0910701C8E0D1E004
:107D20008091080290910902103091F4009157005F
:107D300001700130D9F303E000935700E8950091FA
:107D4000570001700130D9F301E100935700E89525
:107D5000099019900091570001700130D9F301E0AA
:107D600000935700E8951395103498F0112700916F
:107D7000570001700130D9F305E000935700E895F2
:107D80000091570001700130D9F301E100935700D1
:107D9000E8953296029709F0C7CF103011F002969D
:107DA000E5CF112484E10E94533C80E10E94533CC2
:107DB00075CE809104018F5F80930401853009F0B6
:107DC0006DCEE0910201F0910301099567CE9437E1
:107DD00009F06AC00E94713CF70181830E94713CE6
:107DE000F70180838091060190910701880F991F08
:107DF00090930701809306010E94713C853431F411
:107E000080910C02816080930C0205C080910C026D
:107E10008E7F80930C020E94713C803209F03ECE2E
:107E200084E10E94533C8091080290910902892BC1
:107E3000B9F1062D172D80910C0280FF16C0F9991B
:107E4000FECF809106019091070192BD81BDF89A05
:107E500080B50E94533C80910601909107010196E4
:107E6000909307018093060112C081FD07C0E09145
:107E70000601F091070184910E94533C8091060114
:107E800090910701019690930701809306010F5F7F
:107E90001F4F80910802909109020817190758F2A4
:107EA00080E10E94533CFACD953711F50E94713C58
:107EB000803281F484E10E94533C8EE10E94533C65
:107EC00085E90E94533C8FE00E94533C80E10E9470
:107ED000533CE4CD809104018F5F80930401853091
:107EE00009F0DCCDE0910201F09103010995D6CDB6
:107EF000963721F480E00E94C43CD0CD80910401EB
:107F00008F5F80930401853009F0C8CDE0910201B4
:0C7F1000F09103010995C2CDF894FFCF59
:027F1C008000E3
:040000030000780081
:00000001FF
